{
  "_format": "hh-sol-artifact-1",
  "contractName": "BatchCallDelegation",
  "sourceName": "contracts/BatchCallDelegation.sol",
  "abi": [
    {
      "inputs": [
        {
          "components": [
            {
              "internalType": "bytes",
              "name": "data",
              "type": "bytes"
            },
            {
              "internalType": "address",
              "name": "to",
              "type": "address"
            },
            {
              "internalType": "uint256",
              "name": "value",
              "type": "uint256"
            }
          ],
          "internalType": "struct BatchCallDelegation.Call[]",
          "name": "calls",
          "type": "tuple[]"
        }
      ],
      "name": "execute",
      "outputs": [],
      "stateMutability": "payable",
      "type": "function"
    },
    {
      "stateMutability": "payable",
      "type": "receive"
    }
  ],
  "bytecode": "0x6080604052348015600f57600080fd5b506106278061001f6000396000f3fe6080604052600436106100225760003560e01c8063a6d0ad611461002e57610029565b3661002957005b600080fd5b610048600480360381019061004391906101d1565b61004a565b005b60005b8282905081101561015357600083838381811061006d5761006c61021e565b5b905060200281019061007f9190610252565b610088906104d9565b90506000816020015173ffffffffffffffffffffffffffffffffffffffff16826040015183600001516040516100be919061055d565b60006040518083038185875af1925050503d80600081146100fb576040519150601f19603f3d011682016040523d82523d6000602084013e610100565b606091505b5050905080610144576040517f08c379a000000000000000000000000000000000000000000000000000000000815260040161013b906105d1565b60405180910390fd5b5050808060010191505061004d565b505050565b6000604051905090565b600080fd5b600080fd5b600080fd5b600080fd5b600080fd5b60008083601f8401126101915761019061016c565b5b8235905067ffffffffffffffff8111156101ae576101ad610171565b5b6020830191508360208202830111156101ca576101c9610176565b5b9250929050565b600080602083850312156101e8576101e7610162565b5b600083013567ffffffffffffffff81111561020657610205610167565b5b6102128582860161017b565b92509250509250929050565b7f4e487b7100000000000000000000000000000000000000000000000000000000600052603260045260246000fd5b600080fd5b60008235600160600383360303811261026e5761026d61024d565b5b80830191505092915050565b600080fd5b6000601f19601f8301169050919050565b7f4e487b7100000000000000000000000000000000000000000000000000000000600052604160045260246000fd5b6102c88261027f565b810181811067ffffffffffffffff821117156102e7576102e6610290565b5b80604052505050565b60006102fa610158565b905061030682826102bf565b919050565b600080fd5b600080fd5b600067ffffffffffffffff8211156103305761032f610290565b5b6103398261027f565b9050602081019050919050565b82818337600083830152505050565b600061036861036384610315565b6102f0565b90508281526020810184848401111561038457610383610310565b5b61038f848285610346565b509392505050565b600082601f8301126103ac576103ab61016c565b5b81356103bc848260208601610355565b91505092915050565b600073ffffffffffffffffffffffffffffffffffffffff82169050919050565b60006103f0826103c5565b9050919050565b610400816103e5565b811461040b57600080fd5b50565b60008135905061041d816103f7565b92915050565b6000819050919050565b61043681610423565b811461044157600080fd5b50565b6000813590506104538161042d565b92915050565b60006060828403121561046f5761046e61027a565b5b61047960606102f0565b9050600082013567ffffffffffffffff8111156104995761049861030b565b5b6104a584828501610397565b60008301525060206104b98482850161040e565b60208301525060406104cd84828501610444565b60408301525092915050565b60006104e53683610459565b9050919050565b600081519050919050565b600081905092915050565b60005b83811015610520578082015181840152602081019050610505565b60008484015250505050565b6000610537826104ec565b61054181856104f7565b9350610551818560208601610502565b80840191505092915050565b6000610569828461052c565b915081905092915050565b600082825260208201905092915050565b7f63616c6c20726576657274656400000000000000000000000000000000000000600082015250565b60006105bb600d83610574565b91506105c682610585565b602082019050919050565b600060208201905081810360008301526105ea816105ae565b905091905056fea2646970667358221220301f8bd8d301193d97c970b644dd51e084df4dcdb4c439357fdeaac282e85bba64736f6c634300081c0033",
  "linkReferences": {},
  "deployedLinkReferences": {}
}